:020000040000FA
:10000000FE2F00308A000408840A82070034773407
:10001000773477342E3465346C3465346334743417
:1000200072346F3453346F346D3465342E3463342A
:100030006F346D3400344C344334443420344C3405
:100040006934623472346134723479342034663401
:100050006F347234003444346534763465346C342F
:100060006F3470346534643420344234793400346D
:1000700065346C3465346334743472346F3453349F
:100080006F346D34653400344D3450344C34413465
:0C009000423420345834433438340034F7
:100CE200003080260130802608000130802608303E
:100CF20080260800013080260C3080260800F30090
:100D02008312031308107308AC268312031388148A
:100D12001A30F200F830F100F10B8D2EF20B8D2E0D
:100D220000008312031388100800F700F501F60192
:100D32007508770784000120003A03190800750836
:100D4200770784000120C6260130F5070318F60A4A
:100D52000030F607992EF000701CB32E8312031395
:100D62000815B62E831203130811F01CBA2E88152B
:100D7200BB2E8811701DBF2E0816C02E0812F01D42
:100D8200C42E8816080088120800F40074080F396F
:100D9200F1007108F2007408F039F1007108F300F3
:100DA2008312031308147308F10004300310F10CCA
:100DB200FF3E031DD72E7108AC268312031388143D
:100DC2004230F100F10BE32E00008312031388106E
:100DD2007208AC268312031388144230F100F10B1F
:100DE200F02E000083120313881008000030AC2696
:100DF2008230F500DD30F400F40BFD2EF50BFD2EF4
:100E0200022F033080262130F5007630F400F40BF7
:100E1200082FF50B082F0000033080264830F5001C
:100E22006C30F400F40B132FF50B132F000003307A
:100E3200802602308026023080260830802600304C
:100E420080260C308026003080260630802608005E
:100E5200F7007703031D482F74087F3EF5007508DD
:100E6200FA007A08F50004300310F50CFF3E031D6A
:100E7200352F7508F6007608F8007A080F39F50064
:100E82007508F90078088026790880260800023063
:100E92007706031D08007408BF3EF5007508FA00C6
:100EA2007A08F50004300310F50CFF3E031D542FA1
:100EB2007508F6007608F8007A080F39F50075080B
:100EC200F900780880267908802608008316031323
:100ED20009128801F7267126F401F40A0130292744
:100EE20015309626F401F40A023029273E30962660
:100EF2003330FD00BB30FC00DF30FB00FB0B7F2FEB
:100F0200FC0B7F2FFD0B7F2F862F7126F401F40A35
:100F12000130292725309626F401F40A02302927C8
:100F2200323096263330FD00BB30FC00DF30FB0050
:100F3200FB0B992FFC0B992FFD0B992FA02F7126DC
:100F4200F401F40A01302927013096268312031393
:100F5200A001A1010830FD009D30FC000530FB001E
:100F6200FB0BB12FFC0BB12FFD0BB12FB82F762647
:100F7200013083120313A0070318A10A0030A1074E
:100F8200003021020F3003192002031CAB2FA001F5
:100F9200A1010830FD009D30FC000530FB00FB0B79
:100FA200D02FFC0BD02FFD0BD02FD72F7B2601305B
:100FB20083120313A0070318A10A0030A10700300F
:100FC20021020F3003192002031CCA2F7126F401DB
:100FD200F40A023029276530C6265330C62633303C
:100FE200FD00BB30FC00DF30FB00FB0BF62FFC0BDF
:0E0FF200F62FFD0BF62FFD2F6C2F8301672FBE
:02400E00FBFFB6
:00000001FF
